:03000000020800F3
:0C080000787FE4F6D8FD75810C020847F3
:1009AF00454E545259204F50454E20202000455857
:1009BF004954204F50454E202020200043415220C3
:0F09CF005041524B494E47004C4546543A200088
:040A8400020B000859
:040A2C007F0A7E00BF
:100A3000E4FDFCC3ED9FEC9E5015E4FBFA0BBB00FC
:0F0A4000010ABA04F8BBFBF50DBD00010C80E400
:010A4F002284
:100A64008FA0C2B0D2B27F027E00120A30C2B2227C
:100A74008FA0D2B0D2B27F027E00120A30C2B2225C
:100A07008B088A09890AAB08AA09A90A12088C6007
:100A170013050AE50A7002050914F912088CFF127A
:050A27000A7480E222C8
:100A50007F38120A647F0C120A647F06120A647FD0
:040A600001020A6421
:1009DE007F8D120A64AE0BAF0C7C007D0A1208A547
:1009EE00EF2430FF120A74AE0BAF0C7C007D0A129E
:0909FE0008A5ED2430FF020A7483
:10094700D3E50C9400E50B94004028E50C150C70DA
:1009570002150B1209DE7FC0120A647BFF7A097940
:10096700AF120A07D2B4C2B57F2C7E01120A30C279
:04097700B4C2B5222F
:10097B00C3E50C9408E50B94005028050CE50C70AE
:10098B0002050B1209DE7FC0120A647BFF7A09791C
:10099B00BD120A07D2B6C2B77F2C7E01120A30C233
:0409AB00B6C2B722F7
:1008FA007590FFD297120A507F80120A647BFF7AA2
:10090A000979CB120A077FC0120A647BFF7A097938
:10091A00D7120A071209DE20900F120A2C2090091A
:10092A001209473090FD120A2C2091EB120A2C2052
:0D093A0091E512097B3091FD120A2C80DA44
:10080C000208FAE493A3F8E493A34003F68001F200
:10081C0008DFF48029E493A3F85407240CC8C333ED
:10082C00C4540F4420C8834004F456800146F6DFBC
:10083C00E4800B0102040810204080900A84E47EBE
:10084C00019360BCA3FF543F30E509541FFEE493B1
:10085C00A360010ECF54C025E060A840B8E493A378
:10086C00FAE493A3F8E493A3C8C582C8CAC583CAA3
:10087C00F0A3C8C582C8CAC583CADFE9DEE780BE5B
:010A8800006D
:10088C00BB010689828A83E0225002E722BBFE026A
:09089C00E32289828A83E493229D
:1008A500BC000BBE0029EF8DF084FFADF022E4CC37
:1008B500F875F008EF2FFFEE33FEEC33FCEE9DEC00
:1008C500984005FCEE9DFE0FD5F0E9E4CEFD22ED46
:1008D500F8F5F0EE8420D21CFEADF075F008EF2F90
:1008E500FFED33FD4007985006D5F0F222C398FD81
:0508F5000FD5F0EA221E
:00000001FF
